:1000000016161616161E161E04141414141E041C9E
:1000100016161616161A161E04141414141A141C86
:100020001E161E1E1E171E170C141C1C1C171C153A
:100030001E161E1E1E131E170C141C1C1C131C1532
:100040001E161E1E1E161E170C141C1C1C161C151C
:100050001E161E1E1E121E170C141C1C1C121C1514
:10006000171E1E16171E161F051C1C14151E141D08
:10007000171E1E16171A161F051C1C14151A141D00
:100080001E161E1E1E171E160C141C1C1C171C14DC
:100090001E161E1E1E131E160C141C1C1C131C14D4
:1000A000171E1E16171F161E051C1C14151F141CC8
:1000B000171E1E16171B161E051C1C14151B141CC0
:1000C000171E1E16171E161E051C1C14151E141CAA
:1000D000171E1E16171A161E051C1C14151A141CA2
:1000E0001F1E1E1E1F171E170D1C1C1C1D170C1576
:1000F0001F1E1E1E1F131E170D1C1C1C1D130C156E
:00000001FF